S012000041746D656761333238502E73726563D6
S11300000C9434000C9446000C9446000C94460066
S11300100C9446000C9446000C9446000C94460044
S11300200C9446000C9446000C9446000C94460034
S11300300C9446000C9446000C9448000C94460022
S11300400C9446000C94B0000C9446000C944600AA
S11300500C9446000C9446000C9446000C94460004
S11300600C9446000C94460011241FBECFEFD8E038
S1130070DEBFCDBF21E0A0E0B1E001C01D92A734F6
S1130080B207E1F70E94EE000C9414020C940000F5
S11300901F920F920FB60F9211242F933F934F93F9
S11300A05F936F937F938F939F93AF93BF93EF93DC
S11300B0FF938091040190910501019690930501AD
S11300C080930401A9E0B1E0E3E3F1E047E451E007
S11300D08D919D91009749F020813181281739072E
S11300E020F42F5F3F4F318320833296E417F507C6
S11300F079F78091040190910501893E9340F8F0CD
S11301008091000190910101A0910201B09103013D
S11301100196A11DB11D8093000190930101A0934C
S11301200201B09303018091040190910501885E5E
S1130130934090930501809304010E94C701FF91AD
S1130140EF91BF91AF919F918F917F916F915F914B
S11301504F913F912F910F900FBE0F901F901895C4
S11301601F920F920FB60F9211242F933F934F9328
S11301705F936F937F938F939F93AF93BF93EF930B
S1130180FF9380910601833018F0833051F013C03F
S113019080910701882329F08091080163E00E947F
S11301A0BC01109208011092060160E070E085E243
S11301B090E00E945D0110920601FF91EF91BF91C2
S11301C0AF919F918F917F916F915F914F913F91EB
S11301D02F910F900FBE0F901F9018958FB78068C6
S11301E08FBF84B5826084BD85B5836085BDEEE62E
S11301F0F0E080818260808387B58A6F87BD0E942A
S1130200E90120E040E065E070E08BE290E00E94CC
S1130210280120E040E066E070E08BE290E00E947C
S1130220280120E041E067E070E08BE290E00E946A
S1130230280121E041E065E070E085E290E00E9461
S1130240280181E090E09093320180933101FFCF47
S1130250FC01DC0111974423A1F03C9181E090E082
S1130260062E02C0880F991F0A94E2F7382B3C939C
S1130270308141E0892B09F040E0842F832380837F
S11302800CC03C9181E090E0062E02C0880F991FBB
S11302900A94E2F7809583238C93222369F08C914E
S11302A021E030E002C0220F331F6A95E2F7822B6F
S11302B08C938081282B20830895FC013197408101
S11302C021E030E002C0220F331F6A95E2F750E0CC
S11302D0422353232417350721F4FC0130812327BB
S11302E02083089580E00895AF92BF92CF92EF9259
S11302F0FF920F93CF93DF935C017B01EA012111FD
S11303002BC041E062E070E085E290E00E942801A9
S113031020E041E063E070E0C5010E94280120E094
S113032040E064E070E0C7010E94280120E041E061
S113033065E070E0CE010E94280182ED8CBD0023AF
S113034021F09CB580E289278CBDCC2061F09CB55E
S113035088E089278CBD07C082ED8CBD9CB580E107
S113036089278CBDECCFDF91CF910F91FF90EF9057
S1130370CF90BF90AF90089590910601911105C060
S1130380609306018EBD81E0089580E0089508958C
S1130390CF93DF93C82FD62F21E041E060E070E0D7
S11303A085E290E00E94280160E070E085E290E040
S11303B00E945D01D09308011092070162E08C2F26
S11303C00E94BC01809106018111FECFDF91CF9183
S11303D00895CF92EF92FF920F930CB406FE10C0D3
S11303E08CB5823DD1F467E780E50E94C80160E0E6
S11303F070E085E290E00E9472018823C1F30DC091
S1130400C12CE12CF12C00E020E045E250E065E253
S113041070E085E290E00E9474010E94E9010F916E
S10F0420FF90EF90CF900895F894FFCF68
S9030000FC
