:100000000C9434000C9446000C9446000C9446006A
:100010000C9446000C9446000C9446000C94460048
:100020000C9446000C9446000C9446000C94460038
:100030000C9446000C9446000C9448000C94460026
:100040000C9446000C9499000C9446000C944600C5
:100050000C9446000C9446000C9446000C94460008
:100060000C9446000C94460011241FBECFEFD8E03C
:10007000DEBFCDBF21E0A0E0B1E001C01D92A830FD
:10008000B207E1F70E94A3000C9406010C94000053
:100090001F920F920FB60F9211242F933F934F93FD
:1000A0005F936F937F938F939F93AF93BF93EF93E0
:1000B000FF938091040190910501019690930501B1
:1000C000809304018091040190910501893E934041
:1000D000F8F08091000190910101A0910201B0918E
:1000E00003010196A11DB11D8093000190930101B0
:1000F000A0930201B0930301809104019091050146
:10010000885E934090930501809304010E9405014D
:10011000FF91EF91BF91AF919F918F917F916F91DF
:100120005F914F913F912F910F900FBE0F901F90B5
:1001300018951F920F920FB60F9211240F900FBEB9
:100140000F901F9018958FB780688FBF84B582601D
:1001500084BD85B5836085BDEEE6F0E08081826078
:10016000808387B58A6F87BD20E040E065E070E05E
:100170008BE290E00E94D30020E040E066E070E077
:100180008BE290E00E94D30020E041E067E070E065
:100190008BE290E00E94D30081E090E09093070111
:1001A00080930601FFCFFC01DC011197442389F005
:1001B0003C9181E090E0062E02C0880F991F0A94BE
:1001C000E2F7932F982B9C939081809589238083CD
:1001D0000CC03C9181E090E0062E02C0880F991F70
:1001E0000A94E2F7809583238C93222369F08C9103
:1001F00021E030E002C0220F331F6A95E2F7822B24
:100200008C938081282B208308950895F894FFCF44
:00000001FF
