:100000000C9434000C9446000C9446000C9446006A
:100010000C9446000C9446000C9446000C94460048
:100020000C9446000C9446000C9446000C94460038
:100030000C9446000C9446000C9448000C94460026
:100040000C9446000C949D000C9446000C944600C1
:100050000C9446000C9446000C9446000C94460008
:100060000C9446000C94460011241FBECFEFD8E03C
:10007000DEBFCDBF21E0A0E0B1E001C01D92AE30F7
:10008000B207E1F70E94FD000C948A010C94000075
:100090001F920F920FB60F9211242F933F934F93FD
:1000A0005F936F937F938F939F93AF93BF93EF93E0
:1000B000FF938091040190910501019690930501B1
:1000C000809304018091040190910501893E934041
:1000D00018F18091000190910101A0910201B0916D
:1000E00003010196A11DB11D8093000190930101B0
:1000F000A0930201B0930301809104019091050146
:10010000885E9340909305018093040165E070E060
:1001100085E290E00E946A01FF91EF91BF91AF915B
:100120009F918F917F916F915F914F913F912F910F
:100130000F900FBE0F901F9018951F920F920FB641
:100140000F9211242F933F934F935F936F937F935D
:100150008F939F93AF93BF93EF93FF93809106018B
:10016000833018F0833031F135C080910701893038
:10017000E0F0885080930701809108019091090177
:10018000A0910A01B0910B01492F5A2F6B2F7727AD
:10019000409308015093090160930A0170930B0189
:1001A00062E08B2F0E947F0105C063E080910B010C
:1001B0000E947F01109208011092090110920A0119
:1001C00010920B011092060160E070E085E290E071
:1001D0000E946A0110920601FF91EF91BF91AF91C9
:1001E0009F918F917F916F915F914F913F912F914F
:1001F0000F900FBE0F901F9018958FB780688FBF1C
:1002000084B5826084BD85B5836085BDEEE6F0E08F
:1002100080818260808387B58A6F87BD20E040E05F
:1002200065E070E08BE290E00E94350120E040E064
:1002300066E070E08BE290E00E94350120E041E052
:1002400067E070E08BE290E00E94350121E041E040
:1002500065E070E085E290E00E94350181E090E089
:1002600090930D0180930C01FFCFFC01DC011197ED
:100270004423A1F03C9181E090E0062E02C0880F5B
:10028000991F0A94E2F7382B3C93308141E0892B87
:1002900009F040E0842F832380830CC03C9181E0EF
:1002A00090E0062E02C0880F991F0A94E2F780950D
:1002B00083238C93222369F08C9121E030E002C0EB
:1002C000220F331F6A95E2F7822B8C938081282BB3
:1002D00020830895FC013197408121E030E002C085
:1002E000220F331F6A95E2F750E04223532324176D
:1002F000350721F4FC013081232720830895909154
:100300000601911105C0609306018EBD81E008953C
:0803100080E00895F894FFCF8E
:00000001FF
