:100000000C9434000C9446000C9446000C9446006A
:100010000C9446000C9446000C9446000C94460048
:100020000C9446000C9446000C9446000C94460038
:100030000C9446000C9446000C9448000C94460026
:100040000C9446000C9489000C9446000C944600D5
:100050000C9446000C9446000C9446000C94460008
:100060000C9446000C94460011241FBECFEFD8E03C
:10007000DEBFCDBF21E0A0E0B1E001C01D92AE30F7
:10008000B207E1F70E94E9000C940A020C94000008
:100090001F920F920FB60F9211242F938F939F935D
:1000A000AF93BF93809104019091050101969093C5
:1000B0000501809304018091040190910501893E1E
:1000C0009340E8F08091000190910101A09102011C
:1000D000B09103010196A11DB11D80930001909381
:1000E0000101A0930201B09303018091040190915A
:1000F0000501885E93409093050180930401BF91B0
:10010000AF919F918F912F910F900FBE0F901F90E5
:1001100018951F920F920FB60F9211242F933F93B1
:100120004F935F936F937F938F939F93AF93BF93FF
:10013000EF93FF9380910601833018F0833031F103
:1001400035C0809107018930E0F088508093070125
:100150008091080190910901A0910A01B0910B01D1
:10016000492F5A2F6B2F772740930801509309018D
:1001700060930A0170930B0162E08B2F0E94AC0127
:1001800005C063E080910B010E94AC011092080150
:100190001092090110920A0110920B0110920601AF
:1001A00060E070E085E290E00E944D01109206014F
:1001B000FF91EF91BF91AF919F918F917F916F913F
:1001C0005F914F913F912F910F900FBE0F901F9015
:1001D00018958FB780688FBF84B5826084BD85B560
:1001E000836085BDEEE6F0E080818260808387B524
:1001F0008A6F87BD20E040E065E070E08BE290E030
:100200000E941B0120E040E066E070E08BE290E09D
:100210000E941B0120E041E067E070E08BE290E08B
:100220000E941B010E94DF0181E090E090930D018C
:1002300080930C01FFCFFC01DC011197442389F06E
:100240003C9181E090E0062E02C0880F991F0A942D
:10025000E2F7932F982B9C9390818095892380833C
:100260000CC03C9181E090E0062E02C0880F991FDF
:100270000A94E2F7809583238C93222369F08C9172
:1002800021E030E002C0220F331F6A95E2F7822B93
:100290008C938081282B20830895FC013197408125
:1002A00021E030E002C0220F331F6A95E2F750E0F0
:1002B000422353232417350721F4FC0130812327DF
:1002C0002083089580E00895AF92BF92CF92EF927D
:1002D000FF920F93CF93DF935C017B01EA01211121
:1002E0002BC041E062E070E085E290E00E941B01DB
:1002F00020E041E063E070E0C5010E941B0120E0C6
:1003000040E064E070E0C7010E941B0120E041E092
:1003100065E070E0CE010E941B0182ED8CBD0023E0
:1003200021F09CB580E289278CBDCC2061F09CB582
:1003300088E089278CBD07C082ED8CBD9CB580E12B
:1003400089278CBDECCFDF91CF910F91FF90EF907B
:10035000CF90BF90AF90089590910601911105C084
:10036000609306018EBD81E0089580E00895CF93EB
:10037000DF93D82FC62F21E041E060E070E085E2F6
:1003800090E00E941B0160E070E085E290E00E9436
:100390004D018C2F90E0A0E0B0E080930801909395
:1003A0000901A0930A01B0930B0188E08093070133
:1003B00062E08D2F0E94AC01DF91CF910895CF9222
:1003C000EF92FF920F930CB406FE10C08CB5823DE5
:1003D000D1F467E780E50E94B70160E070E085E254
:1003E00090E00E9462018823C1F30DC0C12CE12C72
:1003F000F12C00E020E045E250E065E270E085E2AB
:1004000090E00E9464010E94DF010F91FF90EF9045
:08041000CF900895F894FFCF8E
:00000001FF
