:100000000C948C000C94A9000C94A9000C94A900E9
:100010000C94A9000C94B2020C94A9000C94010257
:100020000C94A9000C94A9000C94A9000C94A900AC
:100030000C94A9000C94A9000C94A9000C94A9009C
:100040000C94A9000C94D7020C94A9000C94A9005C
:100050000C94A9000C94A9000C94A9000C94A9007C
:100060000C94A9000C94A900FE029A039A039A0327
:100070009A039A039A039A039A039A033E039A03F4
:100080009A039A039A039A039A039A039A039A0388
:1000900041039A039A039A039A039A039A039A03D1
:1000A0009A039A0344039A039A039A039A039A03BE
:1000B0009A039A039A039A0347039A039A039A03AB
:1000C0009A039A039A039A039A039A034A039A0398
:1000D0009A039A039A039A039A039A039A039A0338
:1000E0004D039A039A039A039A039A039A039A0375
:1000F0009A039A0357039A039A039A039A039A035B
:100100009A039A039A039A035F030A0312031A03DA
:1001100022032A0332033A0311241FBECFEFD8E093
:10012000DEBFCDBF11E0A0E0B1E0E6E6F7E002C03F
:1001300005900D92A230B107D9F721E0A2E0B1E01D
:1001400001C01D92AA34B207E1F70E94AB000C94E3
:10015000B1030C94000020E040E065E070E08BE229
:1001600090E00E94170120E041E066E070E08BE241
:1001700090E00E94170112BC11BC1FBA8FB38960B6
:100180008FBB80B5E2E0F1E0808312BC21E021BDAD
:10019000F89A80B5818312BC82E081BDF89A80B55F
:1001A000828312BC83E081BDF89A80B5838312BC40
:1001B00084E081BDF89A80B5848312BC85E081BD5E
:1001C00080B53FB341E050E0BA0102C0660F771F2F
:1001D0008A95E2F7CB01832B8FBB12BC11BC7894BC
:1001E00017BC84B5806884BD84B5836084BD85B543
:1001F000826085BDE8E6F0E0808184608083EDE682
:10020000F0E080818062808389B180930D015093FA
:100210002B0140932A0182E3809301012093100176
:1002200061E070E080E090E00E945E01FFCFFC01A1
:10023000DC011197442389F03C9181E090E0062E87
:1002400002C0880F991F0A94E2F7932F982B9C9372
:1002500090818095892380830CC03C9181E090E05F
:10026000062E02C0880F991F0A94E2F78095832317
:100270008C93222369F08C9121E030E002C0220FA0
:10028000331F6A95E2F7822B8C938081282B208381
:100290000895FC013197408121E030E002C0220F37
:1002A000331F6A95E2F750E04223532324173507A2
:1002B00021F4FC01308123272083089561110DC0B2
:1002C000229A2A98239A2B982498259A2D9810924E
:1002D00000018CB581608CBD0AC02298249A2C98AC
:1002E0008CB581608CBD2CB580E182278CBD7723D5
:1002F00021F02CB580E282278CBD992321F09CB59A
:1003000088E089278CBD089590910801911105C05E
:10031000609308018EBD81E0089580E00895E2E0D9
:10032000F1E080818F5F808380818C33E0F12081D8
:1003300090813081518149E8349F312D11243295CB
:1003400036953770892F90E06CE3369F80199109BC
:100350001124249F212D1124229526952770820F88
:10036000911D850F8183108281818C33E0F0818122
:100370009181218139E8239F212D112422952695F1
:100380002770839F812D1124829586958770890F10
:100390009CE3299F801911248283118282818831F4
:1003A00010F0109204010895F894F999FECF12BC50
:1003B00081BD60BD1FBA8EE08FBB84E18150F1F733
:1003C00078940895CF93DF93C2E0D1E0688180E014
:1003D0000E94D401698181E00E94D4016A8182E097
:1003E0000E94D4016B8183E00E94D4016C8184E07F
:1003F0000E94D4016D8185E00E94D401DF91CF91EC
:1004000008951F920F920FB60F9211242F933F93CE
:100410004F935F936F937F938F939F93AF93BF930C
:10042000EF93FF9380911801909119010196909399
:100430001901809318018091180190911901883E4B
:100440009340A0F18091180190911901885E93402A
:1004500090931901809318018091140190911501D6
:10046000A0911601B09117010196A11DB11D8093B5
:10047000140190931501A0931601B0931701809178
:100480004101811105C0E0E4F1E081818F5F81834A
:10049000E0E4F1E082818F5F828382818A3F10F005
:1004A000109242010E94E2010E948F01809110018E
:1004B0008823E1F1E0E4F1E080818F5F8083908127
:1004C000809101019817E8F110924001809111018B
:1004D000882319F087B58D5F02C087B5835087BD2B
:1004E00087B58093130180911301803F70F0809154
:1004F000110181110AC01092100181E08093110155
:1005000080934101809312011CC0809113018531B9
:10051000C0F4809111018823A1F010921001109273
:10052000110110921201109241010BC08091410102
:10053000843138F01092410181E080931001809362
:100540001101FF91EF91BF91AF919F918F917F9199
:100550006F915F914F913F912F910F900FBE0F9030
:100560001F9018951F920F920FB60F9211242F9380
:100570008F939F9399B180910D0129B120930D0123
:10058000892785FF0CC04D9B0AC080911201811103
:1005900004C081E08093100102C0809112019F91FC
:1005A0008F912F910F900FBE0F901F9018951F9253
:1005B0000F920FB60F9211242F933F934F935F9397
:1005C0006F937F938F939F93AF93BF93EF93FF931B
:1005D00080910001882309F48DC080910801811168
:1005E00086C0EEB58E2F90E0FC013A97E135F1051B
:1005F00008F0A0C0EC5CFF4F0C94AB03E0910F013E
:100600008E2F90E087309105C8F5FC01EB57FF4F26
:100610000C94AB0380910F018F5F80930F01809149
:1006200002018EBD80910F018F5F80930F01809139
:1006300003018EBD80910F018F5F80930F01809128
:1006400004018EBD80910F018F5F80930F01809117
:1006500005018EBD80910F018F5F80930F01809106
:1006600006018EBD80910F018F5F80930F018091F5
:1006700007018EBD10920F018EE78EBD80910C0197
:100680008EBD80910B018EBD80910A018EBD80913F
:1006900009018EBD81E0809309018FEF87BD109223
:1006A000100181E08093110189E18093010117BC61
:1006B000109210011092110189E180930101809143
:1006C0000E01811104C081E080930E0133C080913E
:1006D0000E01882379F110920E0117BC8EB580931C
:1006E000010181E0809310011092110123C08091DB
:1006F000080120C08091000181111CC08091080177
:10070000833018F0833051F013C080911A01882390
:1007100029F080911B0163E00E94840110921B016B
:100720001092080160E070E085E290E00E944901CB
:1007300010920801FF91EF91BF91AF919F918F911E
:100740007F916F915F914F913F912F910F900FBECD
:100750000F901F901895EE0FFF1F0590F491E02D5C
:060760000994F894FFCF9C
:02076600010A86
:00000001FF
