:100000000C9434000C9446000C9446000C9446006A
:100010000C9446000C9446000C9446000C94460048
:100020000C9446000C9446000C9446000C94460038
:100030000C9446000C9446000C9448000C94460026
:100040000C9446000C9489000C9446000C944600D5
:100050000C9446000C9446000C9446000C94460008
:100060000C9446000C94460011241FBECFEFD8E03C
:10007000DEBFCDBF21E0A0E0B1E001C01D92AD30F8
:10008000B207E1F70E94CC000C9408020C94000027
:100090001F920F920FB60F9211242F938F939F935D
:1000A000AF93BF93809104019091050101969093C5
:1000B0000501809304018091040190910501893E1E
:1000C0009340E8F08091000190910101A09102011C
:1000D000B09103010196A11DB11D80930001909381
:1000E0000101A0930201B09303018091040190915A
:1000F0000501885E93409093050180930401BF91B0
:10010000AF919F918F912F910F900FBE0F901F90E5
:1001100018951F920F920FB60F9211242F933F93B1
:100120004F935F936F937F938F939F93AF93BF93FF
:10013000EF93FF9380910601833018F0833079F0BC
:1001400018C01092060180910601811108C083E059
:100150008093060168E087E091E00E948D01109293
:100160000701109208011092090110920A011092E1
:10017000060110920601FF91EF91BF91AF919F91FF
:100180008F917F916F915F914F913F912F910F9040
:100190000FBE0F901F9018958FB780688FBF84B5E2
:1001A000826084BD85B5836085BDEEE6F0E0808128
:1001B0008260808387B58A6F87BD20E040E065E07C
:1001C00070E08BE290E00E94FE0020E040E066E0FC
:1001D00070E08BE290E00E94FE0020E041E067E0EA
:1001E00070E08BE290E00E94FE000E94D10181E06D
:1001F00090E090930C0180930B01FFCFFC01DC0198
:100200001197442389F03C9181E090E0062E02C0D2
:10021000880F991F0A94E2F7932F982B9C93908153
:100220008095892380830CC03C9181E090E0062E6C
:1002300002C0880F991F0A94E2F7809583238C935C
:10024000222369F08C9121E030E002C0220F331F9D
:100250006A95E2F7822B8C938081282B2083089566
:10026000FC013197408121E030E002C0220F331FB2
:100270006A95E2F750E0422353232417350721F40F
:10028000FC013081232720830895AF92BF92CF9243
:10029000EF92FF920F93CF93DF935C017B01EA0112
:1002A00021112BC041E062E070E085E290E00E9405
:1002B000FE0020E041E063E070E0C5010E94FE0026
:1002C00020E040E064E070E0C7010E94FE0020E012
:1002D00041E065E070E0CE010E94FE0082ED8CBD41
:1002E000002321F09CB580E289278CBDCC2061F0F1
:1002F0009CB588E089278CBD07C082ED8CBD9CB57C
:1003000080E189278CBDECCFDF91CF910F91FF90D9
:10031000EF90CF90BF90AF900895CF93DF931F924F
:10032000CDB7DEB7693060F428E0FC01DE0111963C
:1003300001900D922A95E1F789818EBD81E001C07F
:1003400080E00F90DF91CF910895CF93DF9300D09D
:1003500000D0CDB7DEB790E0A0E0B0E089839A830B
:10036000AB83BC83862F90E0A0E0B0E080930701D0
:1003700090930801A0930901B0930A0180910601AE
:10038000811108C082E08093060168E0CE010196E9
:100390000E948D010F900F900F900F90DF91CF91E1
:1003A0000895CF92EF92FF920F930CB406FE1CC0FB
:1003B0008CB5823D31F521E041E060E070E085E2FE
:1003C00090E00E94FE0060E070E085E290E00E9414
:1003D000300167E780E50E94A50160E070E085E2FA
:1003E00090E00E9430010DC0C12CE12CF12C00E006
:1003F00020E045E250E065E270E085E290E00E9496
:1004000045010E94D1010F91FF90EF90CF90089588
:04041000F894FFCF8E
:00000001FF
