S012000041746D656761333238502E73726563D6
S11300000C9434000C9446000C9446000C94460066
S11300100C9446000C9446000C9446000C94460044
S11300200C9446000C9446000C9446000C94460034
S11300300C9446000C9446000C9446000C94460024
S11300400C9446000C9446000C9446000C94460014
S11300500C9446000C9446000C9446000C94460004
S11300600C9446000C94460011241FBECFEFD8E038
S1130070DEBFCDBF21E0A0E0B1E001C01D92A230FF
S1130080B207E1F70E9448000C9491000C94000020
S113009020E041E065E070E08BE290E00E945F00C8
S11300A020E040E066E070E08BE290E00E945F00B8
S11300B081E090E09093010180930001FFCFFC0167
S11300C0DC011197442389F03C9181E090E0062EF5
S11300D002C0880F991F0A94E2F7932F982B9C93E0
S11300E090818095892380830CC03C9181E090E0CD
S11300F0062E02C0880F991F0A94E2F78095832385
S11301008C93222369F08C9121E030E002C0220F0D
S1130110331F6A95E2F7822B8C938081282B2083EE
S10901200895F894FFCFDE
S9030000FC
