S012000041746D656761333238502E73726563D6
S11300000C948C000C94A9000C94A9000C94A900E5
S11300100C94A9000C94AF020C94A9000C94F9015F
S11300200C94A9000C94A9000C94A9000C94A900A8
S11300300C94A9000C94A9000C94A9000C94A90098
S11300400C94A9000C94D9020C94A9000C94A90056
S11300500C94A9000C94A9000C94A9000C94A90078
S11300600C94A9000C94A90000039C039C039C031A
S11300709C039C039C039C039C039C0340039C03E0
S11300809C039C039C039C039C039C039C039C0374
S113009043039C039C039C039C039C039C039C03BD
S11300A09C039C0346039C039C039C039C039C03AA
S11300B09C039C039C039C0349039C039C039C0397
S11300C09C039C039C039C039C039C034C039C0384
S11300D09C039C039C039C039C039C039C039C0324
S11300E04F039C039C039C039C039C039C039C0361
S11300F09C039C0359039C039C039C039C039C0347
S11301009C039C039C039C0361030C0314031C03C6
S113011024032C0334033C0311241FBECFEFD8E087
S1130120DEBFCDBF11E0A0E0B1E0EAE6F7E002C037
S113013005900D92A230B107D9F721E0A2E0B1E019
S113014001C01D92AA34B207E1F70E94AB000C94DF
S1130150B3030C94000020E040E065E070E08BE223
S113016090E00E94170120E041E066E070E08BE23D
S113017090E00E94170112BC11BC1FBA8FB38960B2
S11301808FBB80B5E2E0F1E0808312BC21E021BDA9
S1130190F89A80B5818312BC82E081BDF89A80B55B
S11301A0828312BC83E081BDF89A80B5838312BC3C
S11301B084E081BDF89A80B5848312BC85E081BD5A
S11301C080B53FB341E050E0BA0102C0660F771F2B
S11301D08A95E2F7CB01832B8FBB12BC11BC7894B8
S11301E017BC84B5806884BD84B5836084BD85B53F
S11301F0826085BDE8E6F0E0808184608083EDE67E
S1130200F0E080818062808389B1809309015093FA
S11302102B0140932A0182E3809301012093100172
S113022061E070E080E090E00E945E01FFCFFC019D
S1130230DC011197442389F03C9181E090E0062E83
S113024002C0880F991F0A94E2F7932F982B9C936E
S113025090818095892380830CC03C9181E090E05B
S1130260062E02C0880F991F0A94E2F78095832313
S11302708C93222369F08C9121E030E002C0220F9C
S1130280331F6A95E2F7822B8C938081282B20837D
S11302900895FC013197408121E030E002C0220F33
S11302A0331F6A95E2F750E042235323241735079E
S11302B021F4FC01308123272083089561110DC0AE
S11302C0229A2A98239A2B982498259A2D9810924A
S11302D000018CB581608CBD0AC02298249A2C98A8
S11302E08CB581608CBD2CB580E182278CBD7723D1
S11302F021F02CB580E282278CBD992321F09CB596
S113030088E089278CBD089590910801911105C05A
S1130310609308018EBD81E0089580E00895E2E0D5
S1130320F1E080818F5F808380818C33A0F1208114
S1130330318189E8289F912D112492959695977083
S1130340930F91839081989F812D11248295869596
S113035087702CE3829F90191124908381818C33C0
S1130360D0F0918189E8989F912D112492959695CA
S1130370977092839181989F812D112482958695FF
S113038087702CE3829F9019112491838281883194
S113039010F0109204010895F894F999FECF12BC5C
S11303A081BD60BD1FBA8EE08FBB84E18150F1F73F
S11303B078940895CF93DF93C2E0D1E0688180E020
S11303C00E94CC01698181E00E94CC016A8182E0B3
S11303D00E94CC016B8183E00E94CC016C8184E09B
S11303E00E94CC016D8185E00E94CC01DF91CF9108
S11303F008951F920F920FB60F9211242F933F93DB
S11304004F935F936F937F938F939F93AF93BF9318
S1130410EF93FF93809118019091190101969093A5
S11304201901809318018091180190911901883E57
S11304309340A0F18091180190911901885E934036
S113044090931901809318018091140190911501E2
S1130450A0911601B09117010196A11DB11D8093C1
S1130460140190931501A0931601B0931701809184
S11304704101811105C0E0E4F1E081818F5F818356
S1130480E0E4F1E082818F5F828382818A3F10F011
S1130490109242010E94DA010E948F0180911001A2
S11304A08823E9F1E0E4F1E080818F5F808390812B
S11304B080910101981708F441C010924001809185
S11304C01101882319F087B58D5F02C087B5835069
S11304D087BD87B58093130180911301803F70F02D
S11304E08091110181110AC01092100181E0809362
S11304F01101809341018093120120C08091130166
S11305008531E0F4809111018823C1F0109210012B
S11305101092110110921201109241010FC08091AA
S11305204101843158F080910A01811107C0109271
S1130530410181E08093100180931101FF91EF91BB
S1130540BF91AF919F918F917F916F915F914F91E7
S11305503F912F910F900FBE0F901F9018951F92EF
S11305600F920FB60F9211242F938F939F9399B1EB
S11305708091090129B120930901892785FF11C0C0
S11305804D9B0DC081E080930A0180911201882364
S113059019F081E0809310011092110102C01092B1
S11305A00A019F918F912F910F900FBE0F901F9072
S11305B018951F920F920FB60F9211242F933F9309
S11305C04F935F936F937F938F939F93AF93BF9357
S11305D0EF93FF9380910001882309F48DC08091EB
S11305E00801811186C0EEB58E2F90E0FC013A9788
S11305F0E135F10508F0A0C0EC5CFF4F0C94AD03AD
S1130600E0910F018E2F90E087309105C8F5FC0131
S1130610EB57FF4F0C94AD0380910F018F5F8093D4
S11306200F01809102018EBD80910F018F5F809335
S11306300F01809103018EBD80910F018F5F809324
S11306400F01809104018EBD80910F018F5F809313
S11306500F01809105018EBD80910F018F5F809302
S11306600F01809106018EBD80910F018F5F8093F1
S11306700F01809107018EBD10920F018EE78EBD90
S113068080910A018EBD80910D018EBD80910C0177
S11306908EBD80910B018EBD81E080930B018FEFA5
S11306A087BD1092100181E08093110189E180934C
S11306B0010117BC109210011092110189E180937D
S11306C0010180910E01811104C081E080930E012B
S11306D033C080910E01882379F110920E0117BC6A
S11306E08EB58093010181E0809310011092110175
S11306F023C08091080120C08091000181111CC099
S113070080910801833018F0833051F013C0809138
S11307101A01882329F080911B0163E00E9484015F
S113072010921B011092080160E070E085E290E0F5
S11307300E94490110920801FF91EF91BF91AF917E
S11307409F918F917F916F915F914F913F912F91E5
S11307500F900FBE0F901F901895EE0FFF1F05907E
S10D0760F491E02D0994F894FFCF02
S105076A010A7E
S9030000FC
