:100000000C9434000C9446000C9446000C9446006A
:100010000C9446000C9446000C9446000C94480046
:100020000C9446000C9446000C9446000C94460038
:100030000C9446000C9446000C9446000C94460028
:100040000C9446000C94B0000C9446000C944600AE
:100050000C9446000C9446000C9446000C94460008
:100060000C9446000C94460011241FBECFEFD8E03C
:10007000DEBFCDBF21E0A0E0B1E001C01D92A335FD
:10008000B207E1F70E94EE000C9409020C94000004
:100090001F920F920FB60F9211242F933F934F93FD
:1000A0005F936F937F938F939F93AF93BF93EF93E0
:1000B000FF938091040190910501019690930501B1
:1000C00080930401A9E0B1E0EFE3F1E043E551E002
:1000D0008D919D91009749F0208131812817390732
:1000E00020F42F5F3F4F318320833296E417F507CA
:1000F00079F78091040190910501893E9340F8F0D1
:100100008091000190910101A0910201B091030141
:100110000196A11DB11D8093000190930101A09350
:100120000201B09303018091040190910501885E62
:10013000934090930501809304010E94BC01FF91BC
:10014000EF91BF91AF919F918F917F916F915F914F
:100150004F913F912F910F900FBE0F901F901895C8
:100160001F920F920FB60F9211242F933F934F932C
:100170005F936F937F938F939F93AF93BF93EF930F
:10018000FF9380910601833018F0833051F013C043
:1001900080910701882329F08091080163E00E9483
:1001A000B101109208011092060160E070E085E252
:1001B00090E00E94520110920601FF91EF91BF91D1
:1001C000AF919F918F917F916F915F914F913F91EF
:1001D0002F910F900FBE0F901F9018958FB78068CA
:1001E0008FBF84B5816484BD85B58C6085BDEEE626
:1001F000F0E08081808387B587BDE0EBF0E080810F
:1002000082608083E1EBF0E0808184608083E0E7BE
:10021000F0E0808182608083E3EBF0E080818A6F90
:10022000808388E0809368000E94DE0181E090E096
:1002300090933E0180933D01FFCFFC01DC011197BB
:100240004423A1F03C9181E090E0062E02C0880F8B
:10025000991F0A94E2F7382B3C93308141E0892BB7
:1002600009F040E0842F832380830CC03C9181E01F
:1002700090E0062E02C0880F991F0A94E2F780953D
:1002800083238C93222369F08C9121E030E002C01B
:10029000220F331F6A95E2F7822B8C938081282BE3
:1002A00020830895FC013197408121E030E002C0B5
:1002B000220F331F6A95E2F750E04223532324179D
:1002C000350721F4FC01308123272083089580E045
:1002D0000895AF92BF92CF92EF92FF920F93CF9378
:1002E000DF935C017B01EA0121112BC041E062E058
:1002F00070E085E290E00E941D0120E041E063E0B3
:1003000070E0C5010E941D0120E040E064E070E063
:10031000C7010E941D0120E041E065E070E0CE01D0
:100320000E941D0182ED8CBD002321F09CB580E26E
:1003300089278CBDCC2061F09CB588E089278CBDD5
:1003400007C082ED8CBD9CB580E189278CBDECCFC8
:10035000DF91CF910F91FF90EF90CF90BF90AF9032
:10036000089590910601911105C0609306018EBD1C
:1003700081E0089580E008950895CF93DF93C82F1A
:10038000D62F21E041E060E070E085E290E00E943D
:100390001D0160E070E085E290E00E945201D09380
:1003A00008011092070162E08C2F0E94B101809138
:1003B00006018111FECFDF91CF910895CF92EF9288
:1003C000FF920F930CB406FE10C08CB5823DD1F4A1
:1003D00067E780E50E94BD0160E070E085E290E0A3
:1003E0000E9467018823C1F30DC0C12CE12CF12CC0
:1003F00000E020E045E250E065E270E085E290E058
:100400000E9469010E94DE010F91FF90EF90CF9052
:060410000895F894FFCFEF
:00000001FF
