:100000000C9434000C9451000C9451000C94510049
:100010000C9451000C9432020C9451000C94810108
:100020000C9451000C9451000C9451000C9451000C
:100030000C9451000C9451000C9451000C945100FC
:100040000C9451000C9457020C9451000C945100E4
:100050000C9451000C9451000C9451000C945100DC
:100060000C9451000C94510011241FBECFEFD8E026
:10007000DEBFCDBF11E0A0E0B1E0EEE2F5E002C0EE
:1000800005900D92A230B107D9F721E0A2E0B1E0CE
:1000900001C01D92A434B207E1F70E9453000C94F2
:1000A00095020C940000109217011092160120E0A6
:1000B00040E065E070E08BE290E00E94BD0020E04F
:1000C00041E066E070E08BE290E00E94BD0012BC6F
:1000D00011BC1FBA8FB389608FBB80B5E2E0F1E03D
:1000E000808312BC21E021BDF89A80B5818312BCC7
:1000F00082E081BDF89A80B5828312BC83E081BD25
:10010000F89A80B5838312BC84E081BDF89A80B5EB
:10011000848312BC85E081BD80B53FB341E050E0EF
:10012000BA0102C0660F771F8A95E2F7CB01832BD5
:100130008FBB12BC11BC789417BC84B5806884BD99
:1001400084B5836084BD85B5826085BDE8E6F0E056
:10015000808184608083EDE6F0E08081806280832E
:1001600089B180930901509325014093240182E3D2
:100170008093000120930A01FFCFFC01DC0111975D
:10018000442389F03C9181E090E0062E02C0880F64
:10019000991F0A94E2F7932F982B9C939081809556
:1001A000892380830CC03C9181E090E0062E02C040
:1001B000880F991F0A94E2F7809583238C9322235A
:1001C00069F08C9121E030E002C0220F331F6A9564
:1001D000E2F7822B8C938081282B20830895FC01E9
:1001E0003197408121E030E002C0220F331F6A9531
:1001F000E2F750E0422353232417350721F4FC0192
:10020000308123272083089590910801911105C022
:10021000609308018EBD81E0089580E00895E2E0DA
:10022000F1E080818F5F808380818C33E0F12081D9
:1002300090813081518149E8349F312D11243295CC
:1002400036953770892F90E06CE3369F80199109BD
:100250001124249F212D1124229526952770820F89
:10026000911D850F8183108281818C33E0F0818123
:100270009181218139E8239F212D112422952695F2
:100280002770839F812D1124829586958770890F11
:100290009CE3299F801911248283118282818831F5
:1002A00010F0109204010895F894F999FECF12BC51
:1002B00081BD60BD1FBA8EE08FBB84E18150F1F734
:1002C00078940895CF93DF93C2E0D1E0688180E015
:1002D0000E945401698181E00E9454016A8182E098
:1002E0000E9454016B8183E00E9454016C8184E080
:1002F0000E9454016D8185E00E945401DF91CF91ED
:1003000008951F920F920FB60F9211242F933F93CF
:100310004F935F936F937F938F939F93AF93BF930D
:10032000EF93FF93809112019091130101969093A6
:100330001301809312018091120190911301883E64
:100340009340A0F18091120190911301885E934037
:10035000909313018093120180910E0190910F01EF
:10036000A0911001B09111010196A11DB11D8093C2
:100370000E0190930F01A0931001B0931101809191
:100380003B01811105C0EAE3F1E081818F5F818348
:10039000EAE3F1E082818F5F828382818A3F10F0FD
:1003A00010923C010E9462010E940F0180910A019B
:1003B0008823E1F1EAE3F1E080818F5F808390811F
:1003C000809100019817E8F110923A0180910B0199
:1003D000882319F087B5835002C087B58D5F87BD2C
:1003E00087B580930D0180910D01803F70F0809161
:1003F0000B0181110AC010920A0181E080930B0168
:1004000080933B0180930C011CC080910D018531CC
:10041000C0F480910B018823A1F010920A01109280
:100420000B0110920C0110923B010BC080913B011B
:10043000843138F010923B0181E080930A0180936F
:100440000B01FF91EF91BF91AF919F918F917F91A0
:100450006F915F914F913F912F910F900FBE0F9031
:100460001F9018951F920F920FB60F9211242F9381
:100470008F939F9399B18091090129B1209309012C
:10048000892785FF0CC04D9B0AC080910C0181110A
:1004900004C081E080930A0102C080910C019F9109
:1004A0008F912F910F900FBE0F901F9018951F9254
:1004B0000F920FB60F9211242F933F934F935F9398
:1004C0006F937F938F939F93AF93BF93EF93FF931C
:1004D00080910801833018F0833051F013C080916F
:1004E0001401882329F08091150163E00E94040122
:1004F000109215011092080160E070E085E290E032
:100500000E94EF0010920801FF91EF91BF91AF910F
:100510009F918F917F916F915F914F913F912F911B
:0E0520000F900FBE0F901F901895F894FFCF0C
:02052E000A00C1
:00000001FF
