:100000000C9434000C9446000C9446000C9446006A
:100010000C9446000C9471010C9446000C94CE0094
:100020000C9446000C9446000C9446000C94460038
:100030000C9446000C9446000C9446000C94460028
:100040000C9446000C9496010C9446000C944600C7
:100050000C9446000C9446000C9446000C94460008
:100060000C9446000C94460011241FBECFEFD8E03C
:10007000DEBFCDBF21E0A0E0B1E001C01D92AC33F6
:10008000B207E1F70E9448000C94D4010C940000E0
:1000900010920F0110920E0120E040E065E070E048
:1000A0008BE290E00E947B0020E041E066E070E09F
:1000B0008BE290E00E947B00789417BC84B5806846
:1000C00084BD84B5836084BD85B5826085BDE8E666
:1000D000F0E0808184608083EDE6F0E080818062E2
:1000E000808389B18093010181E090E090931D01AC
:1000F00080931C01FFCFFC01DC011197442389F0A0
:100100003C9181E090E0062E02C0880F991F0A946E
:10011000E2F7932F982B9C9390818095892380837D
:100120000CC03C9181E090E0062E02C0880F991F20
:100130000A94E2F7809583238C93222369F08C91B3
:1001400021E030E002C0220F331F6A95E2F7822BD4
:100150008C938081282B20830895FC013197408166
:1001600021E030E002C0220F331F6A95E2F750E031
:10017000422353232417350721F4FC013081232720
:100180002083089590910001911105C060930001B2
:100190008EBD81E0089580E0089508951F920F922A
:1001A0000FB60F9211242F933F934F935F936F934A
:1001B0007F938F939F93AF93BF93EF93FF93809120
:1001C0000A0190910B01019690930B0180930A0113
:1001D00080910A0190910B01883E934040F18091FB
:1001E0000A0190910B01885E934090930B018093DC
:1001F0000A018091060190910701A0910801B09138
:1002000009010196A11DB11D80930601909307017C
:10021000A0930801B093090180913301811105C0B9
:10022000E2E3F1E081818F5F81830E94CD008091C4
:1002300002018823D1F1E2E3F1E080818F5F8083C6
:1002400080818A30E8F11092320180910301882385
:1002500019F087B5835002C087B58D5F87BD87B51C
:100260008093050180910501803F70F0809103012A
:1002700081110AC01092020181E0809303018093F2
:100280003301809304011CC0809105018531C0F4C5
:10029000809103018823A1F01092020110920301C2
:1002A00010920401109233010BC08091330184310C
:1002B00038F01092330181E08093020180930301B2
:1002C000FF91EF91BF91AF919F918F917F916F912E
:1002D0005F914F913F912F910F900FBE0F901F9004
:1002E00018951F920F920FB60F9211242F938F9390
:1002F0009F9399B18091010129B120930101892730
:1003000085FF0CC04D9B0AC080910401811104C07F
:1003100081E08093020102C0809104019F918F913E
:100320002F910F900FBE0F901F9018951F920F9254
:100330000FB60F9211242F933F934F935F936F93B8
:100340007F938F939F93AF93BF93EF93FF9380918E
:100350000001833018F0833051F013C080910C01FC
:10036000882329F080910D0163E00E94C200109261
:100370000D011092000160E070E085E290E00E94C3
:10038000AD0010920001FF91EF91BF91AF919F914D
:100390008F917F916F915F914F913F912F910F902E
:0C03A0000FBE0F901F901895F894FFCF2F
:00000001FF
